{
    "contractName": "MultiSigWallet",
    "abi": [
        {
            "inputs": [
                {
                    "internalType": "address[]",
                    "name": "_owners",
                    "type": "address[]"
                },
                {
                    "internalType": "uint256",
                    "name": "_required",
                    "type": "uint256"
                }
            ],
            "stateMutability": "nonpayable",
            "type": "constructor"
        },
        {
            "anonymous": false,
            "inputs": [
                {
                    "indexed": true,
                    "internalType": "address",
                    "name": "owner",
                    "type": "address"
                },
                {
                    "indexed": true,
                    "internalType": "uint256",
                    "name": "txId",
                    "type": "uint256"
                }
            ],
            "name": "Approve",
            "type": "event"
        },
        {
            "anonymous": false,
            "inputs": [
                {
                    "indexed": true,
                    "internalType": "address",
                    "name": "sender",
                    "type": "address"
                },
                {
                    "indexed": false,
                    "internalType": "uint256",
                    "name": "amount",
                    "type": "uint256"
                }
            ],
            "name": "Deposit",
            "type": "event"
        },
        {
            "anonymous": false,
            "inputs": [
                {
                    "indexed": true,
                    "internalType": "uint256",
                    "name": "txId",
                    "type": "uint256"
                }
            ],
            "name": "Execute",
            "type": "event"
        },
        {
            "anonymous": false,
            "inputs": [
                {
                    "indexed": true,
                    "internalType": "address",
                    "name": "owner",
                    "type": "address"
                },
                {
                    "indexed": true,
                    "internalType": "uint256",
                    "name": "txId",
                    "type": "uint256"
                }
            ],
            "name": "Revoke",
            "type": "event"
        },
        {
            "anonymous": false,
            "inputs": [
                {
                    "indexed": true,
                    "internalType": "uint256",
                    "name": "txId",
                    "type": "uint256"
                }
            ],
            "name": "Submit",
            "type": "event"
        },
        {
            "inputs": [
                {
                    "internalType": "uint256",
                    "name": "_txId",
                    "type": "uint256"
                }
            ],
            "name": "approve",
            "outputs": [],
            "stateMutability": "nonpayable",
            "type": "function"
        },
        {
            "inputs": [
                {
                    "internalType": "uint256",
                    "name": "",
                    "type": "uint256"
                },
                {
                    "internalType": "address",
                    "name": "",
                    "type": "address"
                }
            ],
            "name": "approved",
            "outputs": [
                {
                    "internalType": "bool",
                    "name": "",
                    "type": "bool"
                }
            ],
            "stateMutability": "view",
            "type": "function"
        },
        {
            "inputs": [
                {
                    "internalType": "uint256",
                    "name": "_txId",
                    "type": "uint256"
                }
            ],
            "name": "execute",
            "outputs": [],
            "stateMutability": "nonpayable",
            "type": "function"
        },
        {
            "inputs": [
                {
                    "internalType": "address",
                    "name": "",
                    "type": "address"
                }
            ],
            "name": "isOwner",
            "outputs": [
                {
                    "internalType": "bool",
                    "name": "",
                    "type": "bool"
                }
            ],
            "stateMutability": "view",
            "type": "function"
        },
        {
            "inputs": [
                {
                    "internalType": "uint256",
                    "name": "",
                    "type": "uint256"
                }
            ],
            "name": "owners",
            "outputs": [
                {
                    "internalType": "address",
                    "name": "",
                    "type": "address"
                }
            ],
            "stateMutability": "view",
            "type": "function"
        },
        {
            "inputs": [],
            "name": "required",
            "outputs": [
                {
                    "internalType": "uint256",
                    "name": "",
                    "type": "uint256"
                }
            ],
            "stateMutability": "view",
            "type": "function"
        },
        {
            "inputs": [
                {
                    "internalType": "uint256",
                    "name": "_txId",
                    "type": "uint256"
                }
            ],
            "name": "revoke",
            "outputs": [],
            "stateMutability": "nonpayable",
            "type": "function"
        },
        {
            "inputs": [
                {
                    "internalType": "address",
                    "name": "_to",
                    "type": "address"
                },
                {
                    "internalType": "uint256",
                    "name": "_value",
                    "type": "uint256"
                },
                {
                    "internalType": "bytes",
                    "name": "_data",
                    "type": "bytes"
                }
            ],
            "name": "submit",
            "outputs": [],
            "stateMutability": "nonpayable",
            "type": "function"
        },
        {
            "inputs": [
                {
                    "internalType": "uint256",
                    "name": "",
                    "type": "uint256"
                }
            ],
            "name": "transactions",
            "outputs": [
                {
                    "internalType": "address",
                    "name": "to",
                    "type": "address"
                },
                {
                    "internalType": "uint256",
                    "name": "value",
                    "type": "uint256"
                },
                {
                    "internalType": "bytes",
                    "name": "data",
                    "type": "bytes"
                },
                {
                    "internalType": "bool",
                    "name": "executed",
                    "type": "bool"
                }
            ],
            "stateMutability": "view",
            "type": "function"
        },
        {
            "stateMutability": "payable",
            "type": "receive"
        }
    ],
    "bytecode": "60806040523480156200001157600080fd5b506040516200116e3803806200116e833981016040819052620000349162000287565b60008251116200007d5760405162461bcd60e51b815260206004820152600f60248201526e13dddb995c9cc81c995c5d5a5c9959608a1b60448201526064015b60405180910390fd5b6000811180156200008f575081518111155b620000e75760405162461bcd60e51b815260206004820152602160248201527f496e76616c6964207265717569726564206e756d626572206f66206f776e65726044820152607360f81b606482015260840162000074565b60005b8251811015620002495760008382815181106200010b576200010b62000361565b6020026020010151905060006001600160a01b0316816001600160a01b031603620001695760405162461bcd60e51b815260206004820152600d60248201526c24b73b30b634b21037bbb732b960991b604482015260640162000074565b6001600160a01b03811660009081526001602052604090205460ff1615620001d45760405162461bcd60e51b815260206004820152601360248201527f4f776e6572206973206e6f7420756e6971756500000000000000000000000000604482015260640162000074565b6001600160a01b031660008181526001602081905260408220805460ff191682179055815490810182559080527f290decd9548b62a8d60345a988386fc84ba6bc95484008f6362f93160ef3e5630180546001600160a01b031916909117905580620002408162000377565b915050620000ea565b50600255506200039f565b634e487b7160e01b600052604160045260246000fd5b80516001600160a01b03811681146200028257600080fd5b919050565b600080604083850312156200029b57600080fd5b82516001600160401b0380821115620002b357600080fd5b818501915085601f830112620002c857600080fd5b8151602082821115620002df57620002df62000254565b8160051b604051601f19603f8301168101818110868211171562000307576200030762000254565b6040529283528183019350848101820192898411156200032657600080fd5b948201945b838610156200034f576200033f866200026a565b855294820194938201936200032b565b97909101519698969750505050505050565b634e487b7160e01b600052603260045260246000fd5b6000600182016200039857634e487b7160e01b600052601160045260246000fd5b5060010190565b610dbf80620003af6000396000f3fe60806040526004361061008a5760003560e01c80638253951a116100595780638253951a1461018a5780639ace38c2146101c5578063b759f954146101f5578063dc8452cd14610215578063fe0d94c11461023957600080fd5b8063025e7c27146100cb57806314de327f1461010857806320c5429b1461012a5780632f54bf6e1461014a57600080fd5b366100c65760405134815233907fe1fffcc4923d04b559f4d29a8bfc6cda04eb5b0d3c460751c2402c5c5cc9109c9060200160405180910390a2005b600080fd5b3480156100d757600080fd5b506100eb6100e6366004610982565b610259565b6040516001600160a01b0390911681526020015b60405180910390f35b34801561011457600080fd5b506101286101233660046109b7565b610283565b005b34801561013657600080fd5b50610128610145366004610982565b6103cc565b34801561015657600080fd5b5061017a610165366004610a3e565b60016020526000908152604090205460ff1681565b60405190151581526020016100ff565b34801561019657600080fd5b5061017a6101a5366004610a60565b600460209081526000928352604080842090915290825290205460ff1681565b3480156101d157600080fd5b506101e56101e0366004610982565b610534565b6040516100ff9493929190610a8c565b34801561020157600080fd5b50610128610210366004610982565b610606565b34801561022157600080fd5b5061022b60025481565b6040519081526020016100ff565b34801561024557600080fd5b50610128610254366004610982565b610779565b6000818154811061026957600080fd5b6000918252602090912001546001600160a01b0316905081565b3360009081526001602052604090205460ff166102bb5760405162461bcd60e51b81526004016102b290610afa565b60405180910390fd5b60036040518060800160405280866001600160a01b0316815260200185815260200184848080601f0160208091040260200160405190810160405280939291908181526020018383808284376000920182905250938552505050602091820181905283546001808201865594825290829020835160049092020180546001600160a01b0319166001600160a01b039092169190911781559082015192810192909255604081015190919060028201906103749082610bb6565b50606091909101516003918201805460ff19169115159190911790555461039d90600190610c8c565b6040517f08324b3d745b914e3abd4ffbfead91e3b78391a98c173202129215ab933adfbe90600090a250505050565b3360009081526001602052604090205460ff166103fb5760405162461bcd60e51b81526004016102b290610afa565b6003548190811061041e5760405162461bcd60e51b81526004016102b290610ca5565b816003818154811061043257610432610cd1565b600091825260209091206003600490920201015460ff161561048c5760405162461bcd60e51b81526020600482015260136024820152721d1e08185b1c9958591e48195e1958dd5d1959606a1b60448201526064016102b2565b600083815260046020908152604080832033845290915290205460ff166104e75760405162461bcd60e51b815260206004820152600f60248201526e1d1e081b9bdd08185c1c1c9bdd9959608a1b60448201526064016102b2565b6000838152600460209081526040808320338085529252808320805460ff191690555185927fec9ab91322523c899ede7830ec9bfc992b5981cdcc27b91162fb23de5791117b91a3505050565b6003818154811061054457600080fd5b60009182526020909120600490910201805460018201546002830180546001600160a01b03909316945090929161057a90610b33565b80601f01602080910402602001604051908101604052809291908181526020018280546105a690610b33565b80156105f35780601f106105c8576101008083540402835291602001916105f3565b820191906000526020600020905b8154815290600101906020018083116105d657829003601f168201915b5050506003909301549192505060ff1684565b3360009081526001602052604090205460ff166106355760405162461bcd60e51b81526004016102b290610afa565b600354819081106106585760405162461bcd60e51b81526004016102b290610ca5565b6000828152600460209081526040808320338452909152902054829060ff16156106ba5760405162461bcd60e51b81526020600482015260136024820152721d1e08185b1c9958591e48185c1c1c9bdd9959606a1b60448201526064016102b2565b82600381815481106106ce576106ce610cd1565b600091825260209091206003600490920201015460ff16156107285760405162461bcd60e51b81526020600482015260136024820152721d1e08185b1c9958591e48195e1958dd5d1959606a1b60448201526064016102b2565b6000848152600460209081526040808320338085529252808320805460ff191660011790555186927f90ec57f18fa7b15c6b8d5e4d1deb90796c74b2ff23d4d0cecad0cb42a96b312891a350505050565b6003548190811061079c5760405162461bcd60e51b81526004016102b290610ca5565b6002546107a8836108fa565b10156107ed5760405162461bcd60e51b8152602060048201526014602482015273185c1c1c9bdd985b1cc80f081c995c5d5a5c995960621b60448201526064016102b2565b60006003838154811061080257610802610cd1565b6000918252602082206003600490920201908101805460ff191660019081179091558154908201546040519294506001600160a01b039091169161084a906002860190610ce7565b60006040518083038185875af1925050503d8060008114610887576040519150601f19603f3d011682016040523d82523d6000602084013e61088c565b606091505b50509050806108c95760405162461bcd60e51b81526020600482015260096024820152681d1e0819985a5b195960ba1b60448201526064016102b2565b60405184907fddb556f1d2c1ec821e910b019d3685b229db152a0ecd517ca7e24b8bd713928990600090a250505050565b6000805b60005481101561097c5760046000848152602001908152602001600020600080838154811061092f5761092f610cd1565b60009182526020808320909101546001600160a01b0316835282019290925260400190205460ff161561096a57610967600183610d5d565b91505b8061097481610d70565b9150506108fe565b50919050565b60006020828403121561099457600080fd5b5035919050565b80356001600160a01b03811681146109b257600080fd5b919050565b600080600080606085870312156109cd57600080fd5b6109d68561099b565b935060208501359250604085013567ffffffffffffffff808211156109fa57600080fd5b818701915087601f830112610a0e57600080fd5b813581811115610a1d57600080fd5b886020828501011115610a2f57600080fd5b95989497505060200194505050565b600060208284031215610a5057600080fd5b610a598261099b565b9392505050565b60008060408385031215610a7357600080fd5b82359150610a836020840161099b565b90509250929050565b60018060a01b038516815260006020858184015260806040840152845180608085015260005b81811015610ace5786810183015185820160a001528201610ab2565b50600060a0828601015260a0601f19601f83011685010192505050821515606083015295945050505050565b6020808252600990820152683737ba1037bbb732b960b91b604082015260600190565b634e487b7160e01b600052604160045260246000fd5b600181811c90821680610b4757607f821691505b60208210810361097c57634e487b7160e01b600052602260045260246000fd5b601f821115610bb157600081815260208120601f850160051c81016020861015610b8e5750805b601f850160051c820191505b81811015610bad57828155600101610b9a565b5050505b505050565b815167ffffffffffffffff811115610bd057610bd0610b1d565b610be481610bde8454610b33565b84610b67565b602080601f831160018114610c195760008415610c015750858301515b600019600386901b1c1916600185901b178555610bad565b600085815260208120601f198616915b82811015610c4857888601518255948401946001909101908401610c29565b5085821015610c665787850151600019600388901b60f8161c191681555b5050505050600190811b01905550565b634e487b7160e01b600052601160045260246000fd5b81810381811115610c9f57610c9f610c76565b92915050565b602080825260129082015271747820646f6573206e6f742065786973747360701b604082015260600190565b634e487b7160e01b600052603260045260246000fd5b6000808354610cf581610b33565b60018281168015610d0d5760018114610d2257610d51565b60ff1984168752821515830287019450610d51565b8760005260208060002060005b85811015610d485781548a820152908401908201610d2f565b50505082870194505b50929695505050505050565b80820180821115610c9f57610c9f610c76565b600060018201610d8257610d82610c76565b506001019056fea264697066735822122072a2073ffc937056bdaacd6201f4fa3f51b4131ac64b52c71776c9fea930291064736f6c63430008130033",
    "sourcePath": "/home/mahima/Multi-sig/contracts/MultiSigWallet.sol",
    "compiler": {
        "name": "solc",
        "version": "0.8.19+commit.7dd6d404"
    },
    "functionHashes": {
        "approve(uint256)": "b759f954",
        "approved(uint256,address)": "8253951a",
        "execute(uint256)": "fe0d94c1",
        "isOwner(address)": "2f54bf6e",
        "owners(uint256)": "025e7c27",
        "required()": "dc8452cd",
        "revoke(uint256)": "20c5429b",
        "submit(address,uint256,bytes)": "14de327f",
        "transactions(uint256)": "9ace38c2"
    },
    "gasEstimates": {
        "creation": {
            "codeDepositCost": "703800",
            "executionCost": "infinite",
            "totalCost": "infinite"
        },
        "external": {
            "approve(uint256)": "37076",
            "approved(uint256,address)": "2629",
            "execute(uint256)": "infinite",
            "isOwner(address)": "2598",
            "owners(uint256)": "4604",
            "required()": "2361",
            "revoke(uint256)": "37060",
            "submit(address,uint256,bytes)": "infinite",
            "transactions(uint256)": "infinite"
        },
        "internal": {
            "_getApprovalCount(uint256)": "infinite"
        }
    }
}